{
  "contractName": "Taskr",
  "abi": [
    {
      "constant": true,
      "inputs": [],
      "name": "owner",
      "outputs": [
        {
          "name": "",
          "type": "address"
        }
      ],
      "payable": false,
      "stateMutability": "view",
      "type": "function"
    },
    {
      "inputs": [],
      "payable": false,
      "stateMutability": "nonpayable",
      "type": "constructor"
    },
    {
      "anonymous": false,
      "inputs": [
        {
          "components": [
            {
              "name": "ID",
              "type": "uint256"
            },
            {
              "name": "owner",
              "type": "address"
            },
            {
              "name": "reward",
              "type": "uint256"
            },
            {
              "name": "description",
              "type": "bytes32"
            },
            {
              "name": "tests",
              "type": "bytes32[]"
            },
            {
              "name": "done",
              "type": "bool"
            }
          ],
          "indexed": false,
          "name": "done",
          "type": "tuple"
        },
        {
          "indexed": false,
          "name": "by",
          "type": "address"
        }
      ],
      "name": "TaskDone",
      "type": "event"
    },
    {
      "constant": false,
      "inputs": [
        {
          "name": "id",
          "type": "uint256"
        },
        {
          "name": "desc",
          "type": "bytes32"
        },
        {
          "name": "tests",
          "type": "bytes32[]"
        },
        {
          "name": "reward",
          "type": "uint256"
        }
      ],
      "name": "addTask",
      "outputs": [],
      "payable": false,
      "stateMutability": "nonpayable",
      "type": "function"
    },
    {
      "constant": false,
      "inputs": [
        {
          "name": "id",
          "type": "uint256"
        }
      ],
      "name": "NewTasker",
      "outputs": [],
      "payable": false,
      "stateMutability": "nonpayable",
      "type": "function"
    },
    {
      "constant": true,
      "inputs": [
        {
          "name": "id",
          "type": "uint256"
        }
      ],
      "name": "exists",
      "outputs": [
        {
          "name": "",
          "type": "bool"
        }
      ],
      "payable": false,
      "stateMutability": "view",
      "type": "function"
    },
    {
      "constant": false,
      "inputs": [],
      "name": "isDone",
      "outputs": [],
      "payable": false,
      "stateMutability": "nonpayable",
      "type": "function"
    },
    {
      "constant": false,
      "inputs": [
        {
          "name": "id",
          "type": "uint256"
        }
      ],
      "name": "deleteATOST",
      "outputs": [
        {
          "name": "",
          "type": "bool"
        }
      ],
      "payable": false,
      "stateMutability": "nonpayable",
      "type": "function"
    },
    {
      "constant": true,
      "inputs": [
        {
          "name": "id",
          "type": "uint256"
        }
      ],
      "name": "getTask",
      "outputs": [
        {
          "components": [
            {
              "name": "ID",
              "type": "uint256"
            },
            {
              "name": "owner",
              "type": "address"
            },
            {
              "name": "reward",
              "type": "uint256"
            },
            {
              "name": "description",
              "type": "bytes32"
            },
            {
              "name": "tests",
              "type": "bytes32[]"
            },
            {
              "name": "done",
              "type": "bool"
            }
          ],
          "name": "",
          "type": "tuple"
        }
      ],
      "payable": false,
      "stateMutability": "view",
      "type": "function"
    }
  ],
  "bytecode": "0x6060604052341561000f57600080fd5b336000806101000a81548173ffffffffffffffffffffffffffffffffffffffff021916908373ffffffffffffffffffffffffffffffffffffffff1602179055506111998061005e6000396000f300606060405260043610610083576000357c0100000000000000000000000000000000000000000000000000000000900463ffffffff1680631acec233146100885780631d65e77e146100aa5780634f558e79146100e05780638da5cb5b146101165780638f0622271461013f5780639627f63b14610154578063d8e713071461018a575b600080fd5b341561009357600080fd5b6100a860046100a3903690610cc5565b6101ac565b005b34156100b557600080fd5b6100ca60046100c5903690610cc5565b610311565b6040516100d79190610ff6565b60405180910390f35b34156100eb57600080fd5b61010060046100fb903690610cc5565b61048b565b60405161010d9190610fdb565b60405180910390f35b341561012157600080fd5b610129610500565b6040516101369190610fc0565b60405180910390f35b341561014a57600080fd5b610152610525565b005b341561015f57600080fd5b610174600461016f903690610cc5565b6105dc565b6040516101819190610fdb565b60405180910390f35b341561019557600080fd5b6101aa60046101a5903690610cf7565b61083b565b005b6101b46109fd565b6101bd82610311565b905080600360003373ffffffffffffffffffffffffffffffffffffffff1673ffffffffffffffffffffffffffffffffffffffff1681526020019081526020016000206000820151816000015560208201518160010160006101000a81548173ffffffffffffffffffffffffffffffffffffffff021916908373ffffffffffffffffffffffffffffffffffffffff16021790555060408201518160020155606082015181600301906000191690556080820151816004019080519060200190610286929190610a55565b5060a08201518160050160006101000a81548160ff021916908315150217905550905050600280548060010182816102be9190610aa8565b9160005260206000209001600033909190916101000a81548173ffffffffffffffffffffffffffffffffffffffff021916908373ffffffffffffffffffffffffffffffffffffffff160217905550505050565b6103196109fd565b60008090505b600180549050811015610484578260018281548110151561033c57fe5b90600052602060002090600602016000015414156104775760018181548110151561036357fe5b906000526020600020906006020160c06040519081016040529081600082015481526020016001820160009054906101000a900473ffffffffffffffffffffffffffffffffffffffff1673ffffffffffffffffffffffffffffffffffffffff1673ffffffffffffffffffffffffffffffffffffffff168152602001600282015481526020016003820154600019166000191681526020016004820180548060200260200160405190810160405280929190818152602001828054801561044c57602002820191906000526020600020905b81546000191681526020019060010190808311610434575b505050505081526020016005820160009054906101000a900460ff1615151515815250509150610485565b808060010191505061031f565b5b50919050565b600080600060018054905014156104a557600091506104fa565b600090505b6001805490508110156104f557826001828154811015156104c757fe5b90600052602060002090600602016000015414156104e857600191506104fa565b80806001019150506104aa565b600091505b50919050565b6000809054906101000a900473ffffffffffffffffffffffffffffffffffffffff1681565b600080600360003373ffffffffffffffffffffffffffffffffffffffff1673ffffffffffffffffffffffffffffffffffffffff168152602001908152602001600020915060018260050160006101000a81548160ff0219169083151502179055508160000154905033600460006101000a81548173ffffffffffffffffffffffffffffffffffffffff021916908373ffffffffffffffffffffffffffffffffffffffff1602179055506105d7816105dc565b505050565b600080600090505b60028054905081101561083557826003600060028481548110151561060557fe5b906000526020600020900160009054906101000a900473ffffffffffffffffffffffffffffffffffffffff1673ffffffffffffffffffffffffffffffffffffffff1673ffffffffffffffffffffffffffffffffffffffff168152602001908152602001600020600001541415610828577f67a1fcb7146b731042abf033dba9658b99ca67b6cfe94dc1bb7f1d2cf9f41a4b600360006002848154811015156106a957fe5b906000526020600020900160009054906101000a900473ffffffffffffffffffffffffffffffffffffffff1673ffffffffffffffffffffffffffffffffffffffff1673ffffffffffffffffffffffffffffffffffffffff168152602001908152602001600020600460009054906101000a900473ffffffffffffffffffffffffffffffffffffffff16604051610740929190611018565b60405180910390a16003600060028381548110151561075b57fe5b906000526020600020900160009054906101000a900473ffffffffffffffffffffffffffffffffffffffff1673ffffffffffffffffffffffffffffffffffffffff1673ffffffffffffffffffffffffffffffffffffffff1681526020019081526020016000206000808201600090556001820160006101000a81549073ffffffffffffffffffffffffffffffffffffffff0219169055600282016000905560038201600090556004820160006108119190610ad4565b6005820160006101000a81549060ff021916905550505b80806001019150506105e4565b50919050565b6108436109fd565b6000809054906101000a900473ffffffffffffffffffffffffffffffffffffffff1673ffffffffffffffffffffffffffffffffffffffff163373ffffffffffffffffffffffffffffffffffffffff1614151561089e57600080fd5b6108a78561048b565b1515156108b357600080fd5b60c0604051908101604052808681526020016000809054906101000a900473ffffffffffffffffffffffffffffffffffffffff1673ffffffffffffffffffffffffffffffffffffffff16815260200183815260200185600019168152602001848152602001600015158152509050600180548060010182816109359190610af5565b916000526020600020906006020160008390919091506000820151816000015560208201518160010160006101000a81548173ffffffffffffffffffffffffffffffffffffffff021916908373ffffffffffffffffffffffffffffffffffffffff160217905550604082015181600201556060820151816003019060001916905560808201518160040190805190602001906109d2929190610a55565b5060a08201518160050160006101000a81548160ff0219169083151502179055505050505050505050565b60c06040519081016040528060008152602001600073ffffffffffffffffffffffffffffffffffffffff1681526020016000815260200160008019168152602001610a46610b27565b81526020016000151581525090565b828054828255906000526020600020908101928215610a97579160200282015b82811115610a96578251829060001916905591602001919060010190610a75565b5b509050610aa49190610b3b565b5090565b815481835581811511610acf57818360005260206000209182019101610ace9190610b60565b5b505050565b5080546000825590600052602060002090810190610af29190610b3b565b50565b815481835581811511610b2257600602816006028360005260206000209182019101610b219190610b85565b5b505050565b602060405190810160405280600081525090565b610b5d91905b80821115610b59576000816000905550600101610b41565b5090565b90565b610b8291905b80821115610b7e576000816000905550600101610b66565b5090565b90565b610c0491905b80821115610c00576000808201600090556001820160006101000a81549073ffffffffffffffffffffffffffffffffffffffff021916905560028201600090556003820160009055600482016000610be39190610ad4565b6005820160006101000a81549060ff021916905550600601610b8b565b5090565b90565b600082601f83011260008114610c1c57610c21565b600080fd5b508135610c35610c308261107e565b611048565b91508181835260208401935060208101905083856020840282011160018114610c5d57610c62565b600080fd5b5060005b83811015610c935781610c798882610c9d565b845260208401935060208301925050600181019050610c66565b5050505092915050565b6000610ca9823561113e565b905092915050565b6000610cbd8235611148565b905092915050565b600060208284031260018114610cda57610cdf565b600080fd5b506000610cee84828501610cb1565b91505092915050565b60008060008060808587031260018114610d1057610d15565b600080fd5b506000610d2487828801610cb1565b9450506020610d3587828801610c9d565b935050604085013567ffffffffffffffff811160018114610d5557610d5a565b600080fd5b50610d6787828801610c07565b9250506060610d7887828801610cb1565b91505092959194509250565b610d8d816110fe565b82525050565b6000610d9e826110ce565b808452602084019350610db0836110af565b60005b82811015610de257610dc6868351610e58565b610dcf826110e4565b9150602086019550600181019050610db3565b50849250505092915050565b6000610df9826110d9565b808452602084019350610e0b836110bc565b60005b82811015610e3d57610e21868354610e58565b610e2a826110f1565b9150602086019550600181019050610e0e565b50849250505092915050565b610e528161111e565b82525050565b610e618161112a565b82525050565b600060c083016000830151610e7f6000860182610fb1565b506020830151610e926020860182610d84565b506040830151610ea56040860182610fb1565b506060830151610eb86060860182610e58565b5060808301518482036080860152610ed08282610d93565b91505060a0830151610ee560a0860182610e49565b508091505092915050565b600060c083016000808401549050610f0781611152565b610f146000870182610fb1565b5060018401549050610f2581611152565b610f326020870182610d84565b5060028401549050610f4381611152565b610f506040870182610fb1565b5060038401549050610f6181611152565b610f6e6060870182610e58565b50600484018583036080870152610f858382610dee565b92505060058401549050610f9881611152565b610fa560a0870182610e49565b50819250505092915050565b610fba81611134565b82525050565b6000602082019050610fd56000830184610d84565b92915050565b6000602082019050610ff06000830184610e49565b92915050565b600060208201905081810360008301526110108184610e67565b905092915050565b600060408201905081810360008301526110328185610ef0565b90506110416020830184610d84565b9392505050565b6000604051905081810181811067ffffffffffffffff8211176001811461106e57611073565b600080fd5b508060405250919050565b600067ffffffffffffffff8211600181146110985761109d565b600080fd5b50602082029050602081019050919050565b6000602082019050919050565b60008160005260206000209050919050565b600081519050919050565b600081549050919050565b6000602082019050919050565b6000600182019050919050565b600073ffffffffffffffffffffffffffffffffffffffff82169050919050565b60008115159050919050565b6000819050919050565b6000819050919050565b6000819050919050565b6000819050919050565b60006001820490509190505600a265627a7a723058208c9471addaa4742d855d4fa568b24dddb97d899335fbdab6e8131293eef4162e6c6578706572696d656e74616cf50037",
  "source": "/**\n* Contract for tasks handling\n*/\npragma solidity ^0.4.19;\npragma experimental ABIEncoderV2;\n\ncontract Taskr {\n\n  struct Task {\n    uint ID;\n    address owner;\n    uint reward;\n    bytes32 description;\n    bytes32[] tests;\n    bool done;\n  }\n\n  // Owner of the contract\n  address public owner;\n\n  // All the tasks of the owner of the contract\n  Task[] tasks;\n\n  //All the taskers\n  address[] taskers;\n\n  // Map all the taskers on the project and they if a tasker a finished\n  mapping(address => Task) work;\n\n  // The one who made the taksk first\n  address win;\n\n  modifier onlyOwner() {\n    require(msg.sender == owner);\n    _;\n  }\n\n  modifier isTasker() {\n    require(work[msg.sender].ID != 0);\n    _;\n  }\n\n  event TaskDone(Task done, address by);\n\n  function Taskr() public {\n    owner = msg.sender;\n  }\n\n  function addTask(uint id, bytes32 desc, bytes32[]tests, uint reward) public onlyOwner(){\n      require(!exists(id));\n      Task memory newTask = Task(id, owner, reward, desc, tests, false);\n      tasks.push(newTask);\n  }\n\n  function NewTasker(uint id) public {\n    Task memory t = getTask(id);\n    work[msg.sender] = t;\n    taskers.push(msg.sender);\n  }\n\n  function exists(uint id) public view returns (bool) {\n    if(tasks.length == 0) return false;\n    for(uint i = 0; i < tasks.length; i++) {\n      if (tasks[i].ID == id)\n        return  true;\n    }\n    return false;\n  }\n\n  function isDone() public {\n    Task storage f = work[msg.sender];\n    f.done = true;\n    uint id = f.ID;\n    win = msg.sender;\n    deleteATOST(id);\n  }\n\n  function deleteATOST(uint id) public returns (bool) {\n    for(uint i = 0; i < taskers.length; i++) {\n      if(work[taskers[i]].ID == id) {\n        TaskDone(work[taskers[i]], win);\n        delete work[taskers[i]];\n      }\n    }\n  }\n\n  function getTask(uint id) public view returns(Task) {\n    for(uint i = 0; i < tasks.length; i++) {\n      if(tasks[i].ID == id) {\n        return tasks[i];\n      }\n    }\n  }\n}\n",
  "sourcePath": "/home/lvndry/Github/taskr-smart-contracts/contracts/Task.sol",
  "compiler": {
    "name": "solc",
    "version": "0.4.19+commit.c4cbbb05.Emscripten.clang"
  },
  "schemaVersion": "1.0.1",
  "updatedAt": "2018-02-18T20:51:19.069Z"
}