{
  "contractName": "Taskr",
  "abi": [
    {
      "constant": true,
      "inputs": [],
      "name": "owner",
      "outputs": [
        {
          "name": "",
          "type": "address"
        }
      ],
      "payable": false,
      "stateMutability": "view",
      "type": "function"
    },
    {
      "inputs": [],
      "payable": false,
      "stateMutability": "nonpayable",
      "type": "constructor"
    },
    {
      "anonymous": false,
      "inputs": [
        {
          "indexed": false,
          "name": "ID",
          "type": "uint256"
        },
        {
          "indexed": false,
          "name": "by",
          "type": "address"
        }
      ],
      "name": "TaskDone",
      "type": "event"
    },
    {
      "constant": false,
      "inputs": [
        {
          "components": [
            {
              "name": "ID",
              "type": "uint256"
            },
            {
              "name": "tasker",
              "type": "address"
            },
            {
              "name": "done",
              "type": "bool"
            },
            {
              "name": "description",
              "type": "bytes32"
            },
            {
              "name": "tests",
              "type": "bytes32[]"
            }
          ],
          "name": "newTask",
          "type": "tuple"
        }
      ],
      "name": "addTask",
      "outputs": [],
      "payable": false,
      "stateMutability": "nonpayable",
      "type": "function"
    },
    {
      "constant": false,
      "inputs": [
        {
          "components": [
            {
              "name": "ID",
              "type": "uint256"
            },
            {
              "name": "tasker",
              "type": "address"
            },
            {
              "name": "done",
              "type": "bool"
            },
            {
              "name": "description",
              "type": "bytes32"
            },
            {
              "name": "tests",
              "type": "bytes32[]"
            }
          ],
          "name": "task",
          "type": "tuple"
        }
      ],
      "name": "NewTasker",
      "outputs": [],
      "payable": false,
      "stateMutability": "nonpayable",
      "type": "function"
    },
    {
      "constant": false,
      "inputs": [
        {
          "components": [
            {
              "name": "ID",
              "type": "uint256"
            },
            {
              "name": "tasker",
              "type": "address"
            },
            {
              "name": "done",
              "type": "bool"
            },
            {
              "name": "description",
              "type": "bytes32"
            },
            {
              "name": "tests",
              "type": "bytes32[]"
            }
          ],
          "name": "e",
          "type": "tuple"
        }
      ],
      "name": "exists",
      "outputs": [
        {
          "name": "",
          "type": "bool"
        }
      ],
      "payable": false,
      "stateMutability": "nonpayable",
      "type": "function"
    },
    {
      "constant": false,
      "inputs": [],
      "name": "isDone",
      "outputs": [],
      "payable": false,
      "stateMutability": "nonpayable",
      "type": "function"
    },
    {
      "constant": false,
      "inputs": [
        {
          "name": "id",
          "type": "uint256"
        }
      ],
      "name": "deleteATOST",
      "outputs": [
        {
          "name": "",
          "type": "bool"
        }
      ],
      "payable": false,
      "stateMutability": "nonpayable",
      "type": "function"
    }
  ],
  "bytecode": "0x6060604052341561000f57600080fd5b336000806101000a81548173ffffffffffffffffffffffffffffffffffffffff021916908373ffffffffffffffffffffffffffffffffffffffff160217905550610c2e8061005e6000396000f300606060405260043610610078576000357c0100000000000000000000000000000000000000000000000000000000900463ffffffff1680632c4a40271461007d578063834280d71461009f578063878a60c4146100c15780638da5cb5b146100f75780638f062227146101205780639627f63b14610135575b600080fd5b341561008857600080fd5b61009d6004610098903690610a48565b61016b565b005b34156100aa57600080fd5b6100bf60046100ba903690610a48565b6102a9565b005b34156100cc57600080fd5b6100e160046100dc903690610a48565b6103f0565b6040516100ee9190610b06565b60405180910390f35b341561010257600080fd5b61010a610452565b6040516101179190610aeb565b60405180910390f35b341561012b57600080fd5b610133610477565b005b341561014057600080fd5b6101556004610150903690610a9b565b6104ed565b6040516101629190610b06565b60405180910390f35b6000809054906101000a900473ffffffffffffffffffffffffffffffffffffffff1673ffffffffffffffffffffffffffffffffffffffff163373ffffffffffffffffffffffffffffffffffffffff161415156101c657600080fd5b6101cf816103f0565b1515156101db57600080fd5b600180548060010182816101ef919061071a565b916000526020600020906004020160008390919091506000820151816000015560208201518160010160006101000a81548173ffffffffffffffffffffffffffffffffffffffff021916908373ffffffffffffffffffffffffffffffffffffffff16021790555060408201518160010160146101000a81548160ff0219169083151502179055506060820151816002019060001916905560808201518160030190805190602001906102a292919061074c565b5050505050565b80600360003373ffffffffffffffffffffffffffffffffffffffff1673ffffffffffffffffffffffffffffffffffffffff1681526020019081526020016000206000820151816000015560208201518160010160006101000a81548173ffffffffffffffffffffffffffffffffffffffff021916908373ffffffffffffffffffffffffffffffffffffffff16021790555060408201518160010160146101000a81548160ff02191690831515021790555060608201518160020190600019169055608082015181600301908051906020019061038692919061074c565b509050506002805480600101828161039e919061079f565b9160005260206000209001600033909190916101000a81548173ffffffffffffffffffffffffffffffffffffffff021916908373ffffffffffffffffffffffffffffffffffffffff1602179055505050565b600080600090505b60018054905081101561044757826000015160018281548110151561041957fe5b906000526020600020906004020160000154141561043a576000915061044c565b80806001019150506103f8565b600191505b50919050565b6000809054906101000a900473ffffffffffffffffffffffffffffffffffffffff1681565b600080600360003373ffffffffffffffffffffffffffffffffffffffff1673ffffffffffffffffffffffffffffffffffffffff168152602001908152602001600020915060018260010160146101000a81548160ff021916908315150217905550816000015490506104e8816104ed565b505050565b600080600090505b60028054905081101561071457826003600060028481548110151561051657fe5b906000526020600020900160009054906101000a900473ffffffffffffffffffffffffffffffffffffffff1673ffffffffffffffffffffffffffffffffffffffff1673ffffffffffffffffffffffffffffffffffffffff1681526020019081526020016000206000015414156107075760a06040519081016040528060008152602001600073ffffffffffffffffffffffffffffffffffffffff1681526020016000151581526020016000801916815260200160006040518059106105d85750595b9080825280602002602001820160405250815250600360006002848154811015156105ff57fe5b906000526020600020900160009054906101000a900473ffffffffffffffffffffffffffffffffffffffff1673ffffffffffffffffffffffffffffffffffffffff1673ffffffffffffffffffffffffffffffffffffffff1681526020019081526020016000206000820151816000015560208201518160010160006101000a81548173ffffffffffffffffffffffffffffffffffffffff021916908373ffffffffffffffffffffffffffffffffffffffff16021790555060408201518160010160146101000a81548160ff02191690831515021790555060608201518160020190600019169055608082015181600301908051906020019061070292919061074c565b509050505b80806001019150506104f5565b50919050565b8154818355818115116107475760040281600402836000526020600020918201910161074691906107cb565b5b505050565b82805482825590600052602060002090810192821561078e579160200282015b8281111561078d57825182906000191690559160200191906001019061076c565b5b50905061079b9190610845565b5090565b8154818355818115116107c6578183600052602060002091820191016107c5919061086a565b5b505050565b61084291905b8082111561083e576000808201600090556001820160006101000a81549073ffffffffffffffffffffffffffffffffffffffff02191690556001820160146101000a81549060ff02191690556002820160009055600382016000610835919061088f565b506004016107d1565b5090565b90565b61086791905b8082111561086357600081600090555060010161084b565b5090565b90565b61088c91905b80821115610888576000816000905550600101610870565b5090565b90565b50805460008255906000526020600020908101906108ad9190610845565b50565b60006108bc8235610bb4565b905092915050565b600082601f830112600081146108d9576108de565b600080fd5b5081356108f26108ed82610b57565b610b21565b9150818183526020840193506020810190508385602084028201116001811461091a5761091f565b600080fd5b5060005b838110156109505781610936888261096e565b845260208401935060208301925050600181019050610923565b5050505092915050565b60006109668235610bd4565b905092915050565b600061097a8235610be0565b905092915050565b600060a082840312600181146109975761099c565b600080fd5b506109a760a0610b21565b905060006109b784828501610a34565b60008301525060206109cb848285016108b0565b60208301525060406109df8482850161095a565b60408301525060606109f38482850161096e565b606083015250608082013567ffffffffffffffff811160018114610a1657610a1b565b600080fd5b50610a28848285016108c4565b60808301525092915050565b6000610a408235610bea565b905092915050565b600060208284031260018114610a5d57610a62565b600080fd5b50600082013567ffffffffffffffff811160018114610a8057610a85565b600080fd5b50610a9284828501610982565b91505092915050565b600060208284031260018114610ab057610ab5565b600080fd5b506000610ac484828501610a34565b91505092915050565b610ad681610b88565b82525050565b610ae581610ba8565b82525050565b6000602082019050610b006000830184610acd565b92915050565b6000602082019050610b1b6000830184610adc565b92915050565b6000604051905081810181811067ffffffffffffffff82111760018114610b4757610b4c565b600080fd5b508060405250919050565b600067ffffffffffffffff821160018114610b7157610b76565b600080fd5b50602082029050602081019050919050565b600073ffffffffffffffffffffffffffffffffffffffff82169050919050565b60008115159050919050565b600073ffffffffffffffffffffffffffffffffffffffff82169050919050565b60008115159050919050565b6000819050919050565b60008190509190505600a265627a7a72305820d08615556f24103edc4c6ad63cba40eb3f6df127effef4628cac546f2130a0276c6578706572696d656e74616cf50037",
  "source": "/**\n* Contract for tasks handling\n*/\npragma solidity ^0.4.19;\npragma experimental ABIEncoderV2;\n\ncontract Taskr {\n\n  struct Task {\n    uint ID;\n    address tasker;\n    bool done;\n    bytes32 description;\n    bytes32[] tests;\n  }\n\n  // Owner of the contract\n  address public owner;\n\n  // All the tasks of the owner of the contract\n  Task[] tasks;\n\n  //All the taskers\n  address[] taskers;\n\n  // Map all the taskers on the project and they if a tasker a finished\n  mapping(address => Task) work;\n\n  modifier onlyOwner() {\n    require(msg.sender == owner);\n    _;\n  }\n\n  modifier isTasker() {\n    require(work[msg.sender].ID != 0);\n    _;\n  }\n\n  event TaskDone(uint ID, address by);\n  \n  function Taskr() {\n    owner = msg.sender;\n  }\n\n  function addTask(Task newTask) onlyOwner() {\n      require(!exists(newTask));\n      tasks.push(newTask);\n  }\n\n  function NewTasker(Task task) {\n    work[msg.sender] = task;\n    taskers.push(msg.sender);\n  }\n\n  function exists(Task e) returns (bool) {\n    for(uint i = 0; i < tasks.length; i++) {\n      if (tasks[i].ID == e.ID)\n        return  false;\n    }\n    return true;\n  }\n\n  function isDone() {\n    Task storage f = work[msg.sender];\n    f.done = true;\n    uint id = f.ID;\n    deleteATOST(id);\n  }\n\n  function deleteATOST(uint id) returns (bool) {\n    for(uint i = 0; i < taskers.length; i++){\n      if(work[taskers[i]].ID == id) {\n        work[taskers[i]] = Task(0, 0x00, false, '', new bytes32[](0));\n      }\n    }\n  }\n}\n",
  "sourcePath": "/home/lvndry/Github/taskr-smart-contracts/contracts/Task.sol",
  "compiler": {
    "name": "solc",
    "version": "0.4.19+commit.c4cbbb05.Emscripten.clang"
  },
  "schemaVersion": "1.0.1",
  "updatedAt": "2018-02-18T10:10:01.121Z"
}